{
  "_format": "hh-sol-artifact-1",
  "contractName": "DiamondHands",
  "sourceName": "contracts/DiamondHands.sol",
  "abi": [
    {
      "inputs": [
        {
          "internalType": "uint256",
          "name": "_fee",
          "type": "uint256"
        }
      ],
      "stateMutability": "nonpayable",
      "type": "constructor"
    },
    {
      "inputs": [],
      "name": "fee",
      "outputs": [
        {
          "internalType": "uint256",
          "name": "",
          "type": "uint256"
        }
      ],
      "stateMutability": "view",
      "type": "function"
    },
    {
      "inputs": [],
      "name": "getFee",
      "outputs": [
        {
          "internalType": "uint256",
          "name": "",
          "type": "uint256"
        }
      ],
      "stateMutability": "view",
      "type": "function"
    },
    {
      "inputs": [
        {
          "internalType": "address",
          "name": "",
          "type": "address"
        },
        {
          "internalType": "uint256",
          "name": "",
          "type": "uint256"
        }
      ],
      "name": "lockedUntil",
      "outputs": [
        {
          "internalType": "uint256",
          "name": "until",
          "type": "uint256"
        },
        {
          "internalType": "uint256",
          "name": "value",
          "type": "uint256"
        },
        {
          "internalType": "bool",
          "name": "claimed",
          "type": "bool"
        }
      ],
      "stateMutability": "view",
      "type": "function"
    },
    {
      "inputs": [],
      "name": "owner",
      "outputs": [
        {
          "internalType": "address payable",
          "name": "",
          "type": "address"
        }
      ],
      "stateMutability": "view",
      "type": "function"
    },
    {
      "inputs": [
        {
          "internalType": "uint256",
          "name": "_fee",
          "type": "uint256"
        }
      ],
      "name": "setFee",
      "outputs": [],
      "stateMutability": "nonpayable",
      "type": "function"
    },
    {
      "inputs": [
        {
          "internalType": "address payable",
          "name": "newOwner",
          "type": "address"
        }
      ],
      "name": "setOwner",
      "outputs": [],
      "stateMutability": "nonpayable",
      "type": "function"
    },
    {
      "inputs": [],
      "name": "totalFee",
      "outputs": [
        {
          "internalType": "uint256",
          "name": "",
          "type": "uint256"
        }
      ],
      "stateMutability": "view",
      "type": "function"
    },
    {
      "inputs": [],
      "name": "withdraw",
      "outputs": [
        {
          "internalType": "uint256",
          "name": "",
          "type": "uint256"
        }
      ],
      "stateMutability": "nonpayable",
      "type": "function"
    },
    {
      "inputs": [],
      "name": "withdrawFee",
      "outputs": [
        {
          "internalType": "bool",
          "name": "",
          "type": "bool"
        },
        {
          "internalType": "bytes",
          "name": "",
          "type": "bytes"
        }
      ],
      "stateMutability": "payable",
      "type": "function"
    },
    {
      "stateMutability": "payable",
      "type": "receive"
    }
  ],
  "bytecode": "0x60806040523480156200001157600080fd5b5060405162001299380380620012998339818101604052810190620000379190620001bc565b620000826040518060400160405280601881526020017f496e697469616c697a696e6720636f6e74726163742e2e2e0000000000000000815250620000d960201b620008771760201c565b33600160006101000a81548173ffffffffffffffffffffffffffffffffffffffff021916908373ffffffffffffffffffffffffffffffffffffffff16021790555080600281905550600060038190555050620002d4565b6200017981604051602401620000f0919062000229565b6040516020818303038152906040527f41304fac000000000000000000000000000000000000000000000000000000007bffffffffffffffffffffffffffffffffffffffffffffffffffffffff19166020820180517bffffffffffffffffffffffffffffffffffffffffffffffffffffffff83818316178352505050506200017c60201b60201c565b50565b60008151905060006a636f6e736f6c652e6c6f679050602083016000808483855afa5050505050565b600081519050620001b681620002ba565b92915050565b600060208284031215620001cf57600080fd5b6000620001df84828501620001a5565b91505092915050565b6000620001f5826200024d565b62000201818562000258565b93506200021381856020860162000273565b6200021e81620002a9565b840191505092915050565b60006020820190508181036000830152620002458184620001e8565b905092915050565b600081519050919050565b600082825260208201905092915050565b6000819050919050565b60005b838110156200029357808201518184015260208101905062000276565b83811115620002a3576000848401525b50505050565b6000601f19601f8301169050919050565b620002c58162000269565b8114620002d157600080fd5b50565b610fb580620002e46000396000f3fe60806040526004361061008a5760003560e01c80638da5cb5b116100595780638da5cb5b1461024b578063ced72f8714610276578063ddca3f43146102a1578063e5c99b6c146102cc578063e941fa781461030b5761019e565b806313af4035146101a35780631df4ccfc146101cc5780633ccfd60b146101f757806369fe0e2d146102225761019e565b3661019e5760006064346002546100a19190610cec565b6100ab9190610cbb565b905080600360008282546100bf9190610c65565b925050819055506000803373ffffffffffffffffffffffffffffffffffffffff1673ffffffffffffffffffffffffffffffffffffffff16815260200190815260200160002060405180606001604052806303aaac004261011f9190610c65565b815260200183346101309190610d46565b8152602001600015158152509080600181540180825580915050600190039060005260206000209060030201600090919091909150600082015181600001556020820151816001015560408201518160020160006101000a81548160ff021916908315150217905550505050005b600080fd5b3480156101af57600080fd5b506101ca60048036038101906101c59190610978565b61032a565b005b3480156101d857600080fd5b506101e16103c8565b6040516101ee9190610bd0565b60405180910390f35b34801561020357600080fd5b5061020c6103ce565b6040516102199190610bd0565b60405180910390f35b34801561022e57600080fd5b50610249600480360381019061024491906109dd565b610625565b005b34801561025757600080fd5b506102606106d9565b60405161026d9190610b23565b60405180910390f35b34801561028257600080fd5b5061028b6106ff565b6040516102989190610bd0565b60405180910390f35b3480156102ad57600080fd5b506102b6610709565b6040516102c39190610bd0565b60405180910390f35b3480156102d857600080fd5b506102f360048036038101906102ee91906109a1565b61070f565b60405161030293929190610beb565b60405180910390f35b610313610763565b604051610321929190610b3e565b60405180910390f35b600160009054906101000a900473ffffffffffffffffffffffffffffffffffffffff1673ffffffffffffffffffffffffffffffffffffffff163373ffffffffffffffffffffffffffffffffffffffff161461038457600080fd5b80600160006101000a81548173ffffffffffffffffffffffffffffffffffffffff021916908373ffffffffffffffffffffffffffffffffffffffff16021790555050565b60035481565b6000806000803373ffffffffffffffffffffffffffffffffffffffff1673ffffffffffffffffffffffffffffffffffffffff16815260200190815260200160002090506000805b82805490508110156105aa5782818154811061045a577f4e487b7100000000000000000000000000000000000000000000000000000000600052603260045260246000fd5b90600052602060002090600302016000015442101580156104d65750600015158382815481106104b3577f4e487b7100000000000000000000000000000000000000000000000000000000600052603260045260246000fd5b906000526020600020906003020160020160009054906101000a900460ff161515145b1561059757828181548110610514577f4e487b7100000000000000000000000000000000000000000000000000000000600052603260045260246000fd5b906000526020600020906003020160010154826105319190610c65565b9150600183828154811061056e577f4e487b7100000000000000000000000000000000000000000000000000000000600052603260045260246000fd5b906000526020600020906003020160020160006101000a81548160ff0219169083151502179055505b80806105a290610e07565b915050610415565b506000811461061d573373ffffffffffffffffffffffffffffffffffffffff16816040516105d790610b0e565b60006040518083038185875af1925050503d8060008114610614576040519150601f19603f3d011682016040523d82523d6000602084013e610619565b606091505b5050505b809250505090565b600160009054906101000a900473ffffffffffffffffffffffffffffffffffffffff1673ffffffffffffffffffffffffffffffffffffffff163373ffffffffffffffffffffffffffffffffffffffff161461067f57600080fd5b600081118015610690575060328111155b6106cf576040517f08c379a00000000000000000000000000000000000000000000000000000000081526004016106c690610bb0565b60405180910390fd5b8060028190555050565b600160009054906101000a900473ffffffffffffffffffffffffffffffffffffffff1681565b6000600254905090565b60025481565b6000602052816000526040600020818154811061072b57600080fd5b9060005260206000209060030201600091509150508060000154908060010154908060020160009054906101000a900460ff16905083565b60006060600160009054906101000a900473ffffffffffffffffffffffffffffffffffffffff1673ffffffffffffffffffffffffffffffffffffffff163373ffffffffffffffffffffffffffffffffffffffff16146107c157600080fd5b600060035411610806576040517f08c379a00000000000000000000000000000000000000000000000000000000081526004016107fd90610b90565b60405180910390fd5b3373ffffffffffffffffffffffffffffffffffffffff1660035460405161082c90610b0e565b60006040518083038185875af1925050503d8060008114610869576040519150601f19603f3d011682016040523d82523d6000602084013e61086e565b606091505b50915091509091565b61090d8160405160240161088b9190610b6e565b6040516020818303038152906040527f41304fac000000000000000000000000000000000000000000000000000000007bffffffffffffffffffffffffffffffffffffffffffffffffffffffff19166020820180517bffffffffffffffffffffffffffffffffffffffffffffffffffffffff8381831617835250505050610910565b50565b60008151905060006a636f6e736f6c652e6c6f679050602083016000808483855afa5050505050565b60008135905061094881610f3a565b92915050565b60008135905061095d81610f51565b92915050565b60008135905061097281610f68565b92915050565b60006020828403121561098a57600080fd5b60006109988482850161094e565b91505092915050565b600080604083850312156109b457600080fd5b60006109c285828601610939565b92505060206109d385828601610963565b9150509250929050565b6000602082840312156109ef57600080fd5b60006109fd84828501610963565b91505092915050565b610a0f81610d8c565b82525050565b610a1e81610d9e565b82525050565b6000610a2f82610c22565b610a398185610c38565b9350610a49818560208601610dd4565b610a5281610eae565b840191505092915050565b6000610a6882610c2d565b610a728185610c54565b9350610a82818560208601610dd4565b610a8b81610eae565b840191505092915050565b6000610aa3601883610c54565b9150610aae82610ebf565b602082019050919050565b6000610ac6602583610c54565b9150610ad182610ee8565b604082019050919050565b6000610ae9600083610c49565b9150610af482610f37565b600082019050919050565b610b0881610dca565b82525050565b6000610b1982610adc565b9150819050919050565b6000602082019050610b386000830184610a06565b92915050565b6000604082019050610b536000830185610a15565b8181036020830152610b658184610a24565b90509392505050565b60006020820190508181036000830152610b888184610a5d565b905092915050565b60006020820190508181036000830152610ba981610a96565b9050919050565b60006020820190508181036000830152610bc981610ab9565b9050919050565b6000602082019050610be56000830184610aff565b92915050565b6000606082019050610c006000830186610aff565b610c0d6020830185610aff565b610c1a6040830184610a15565b949350505050565b600081519050919050565b600081519050919050565b600082825260208201905092915050565b600081905092915050565b600082825260208201905092915050565b6000610c7082610dca565b9150610c7b83610dca565b9250827fffffffffffffffffffffffffffffffffffffffffffffffffffffffffffffffff03821115610cb057610caf610e50565b5b828201905092915050565b6000610cc682610dca565b9150610cd183610dca565b925082610ce157610ce0610e7f565b5b828204905092915050565b6000610cf782610dca565b9150610d0283610dca565b9250817fffffffffffffffffffffffffffffffffffffffffffffffffffffffffffffffff0483118215151615610d3b57610d3a610e50565b5b828202905092915050565b6000610d5182610dca565b9150610d5c83610dca565b925082821015610d6f57610d6e610e50565b5b828203905092915050565b6000610d8582610daa565b9050919050565b6000610d9782610daa565b9050919050565b60008115159050919050565b600073ffffffffffffffffffffffffffffffffffffffff82169050919050565b6000819050919050565b60005b83811015610df2578082015181840152602081019050610dd7565b83811115610e01576000848401525b50505050565b6000610e1282610dca565b91507fffffffffffffffffffffffffffffffffffffffffffffffffffffffffffffffff821415610e4557610e44610e50565b5b600182019050919050565b7f4e487b7100000000000000000000000000000000000000000000000000000000600052601160045260246000fd5b7f4e487b7100000000000000000000000000000000000000000000000000000000600052601260045260246000fd5b6000601f19601f8301169050919050565b7f546f74616c2066656520636f6c6c656374656420697320300000000000000000600082015250565b7f4665652070657263656e74206973206e6f74206265747765656e20302520616e60008201527f6420353025000000000000000000000000000000000000000000000000000000602082015250565b50565b610f4381610d7a565b8114610f4e57600080fd5b50565b610f5a81610d8c565b8114610f6557600080fd5b50565b610f7181610dca565b8114610f7c57600080fd5b5056fea26469706673582212209c4256461d8e635ac81bee0aea7c0bfc27b4abe0a935e5ce3093cc263e2dbe7e64736f6c63430008040033",
  "linkReferences": {},
  "deployedLinkReferences": {}
}